:020000040000fa
:020000040040ba
:10000000f0ff4520a9174000c32040008f26400084
:10001000033440004f254000e71e40000000000070
:10002000000000000000000000000000d71c40009d
:10003000232d400000000000d71c4000d71c4000ca
:10004000d71c4000d71c4000d71c4000d71c4000e4
:10005000d71c4000d71c4000d71c4000d71c4000d4
:10006000d71c400000000000d71c4000d71c4000f7
:10007000d71c4000d71c4000d71c4000d71c4000b4
:10008000d71c4000d71c4000d71c4000d71c4000a4
:10009000d71c4000d71c4000d71c4000d71c400094
:1000a000d71c4000d71c4000d71c4000d71c400084
:1000b000d71c4000d71c4000d71c4000d71c400074
:1000c000d71c4000d71c4000d71c4000d71c400064
:1000d000d71c4000d71c4000d71c4000d71c400054
:1000e000d71c4000d71c4000d71c4000d71c400044
:1000f000d71c4000d71c4000d71c4000d71c400034
:10010000d71c4000d71c4000d71c4000d71c400023
:10011000d71c4000000000000000000000000000ac
:10012000d71c4000d71c4000d71c4000d71c400003
:10013000d71c4000d71c4000d71c4000d71c4000f3
:10014000d71c4000d71c4000d71c4000d71c4000e3
:10015000d71c4000d71c4000d71c4000d71c4000d3
:08016000d71c4000d71c400031
:020000040000fa
:020000040040ba
:10016800f8b500bff8bc08bc9e467047b12e4000e9
:10017800f8b500bff8bc08bc9e4670478d2e4000fd
:020000040000fa
:020000040040ba
:100188002de9f04f55ec104b95b0476a0891814620
:100198000c9211931e9ecde9044547b9102003f037
:1001a80065f9c0e90177c9f824000760c760d9f884
:1001b8002430196859b15a684a60012393408b600a
:1001c800484602f042ffd9f8243000221a60002d78
:1001d800bfbf0123336025f000430593a4bf00236c
:1001e8003360059ca84ba3431ad1119a42f20f73ae
:1001f8001360049bc4f31304234300f0ca841f9bb9
:1002080053b9a24b20e0a24b029308331f9a136004
:10021800029815b0bde8f08f9c4b02930333f5e7c5
:100228009ded047bb5ee407bf1ee10fa8ded0a7b77
:100238000cd1119a012313601f9b002b00f0a68498
:10024800944b1f9a1360013b0293e1e713a912aa8a
:100258009ded0a0b484602f0c7f9c4f30a55019010
:100268001299002d46d00b98c0f31300dde90a233c
:1002780040f07f5343f44013a5f2ff3a002607eeff
:1002880090aa43ec162bb8eee75b9fed794bb7eedf
:10029800087b36ee477b9fed786ba7ee046bb0eedc
:1002a800467b9fed776ba5ee067bfdeec76bb5ee43
:1002b800c07bf1ee10fa16ee90ba08d5b8eee66bf0
:1002c800b4ee476bf1ee10fa18bf0bf1ff3bbbf130
:1002d800160f34d8704b03ebcb0393ed007b9dede9
:1002e8000a6bb4eec76bf1ee10fa01d50bf1ff3bc8
:1002f800002325e0139b01eb030a0af23243202b6b
:1003080017ddc3f14003049a9c400af2124322fa13
:1003180003f3234307ee903ab8ee677b0af1ff3afe
:100328008ded027b0398dde902230126a0f1f87325
:10033800a5e7049ac3f1200302fa03f3eae70123cd
:10034800a1eb0a0a1093baf10103079343bf0023f4
:10035800caf1010a07934ff0000abbf1000f18db3e
:10036800079bcdf834b05b4407930027089b092b03
:1003780066d8052bc4bf043b0893089ba3f102036e
:10038800ccbf00240124032b65d8dfe803f0094b18
:1003980049570023aaeb0b0acbf100070d93e5e7b9
:1003a800002309930c9b002b59dc012306939846e4
:1003b8000c93d9f8245000226a60042202f1140038
:1003c800984269684fd9484602f040fbd9f8243072
:1003d80028601b680293b8f10e0f00f2bc80002c55
:1003e80000f0b980bbf1000f40f3e3802a4a0bf01c
:1003f8000f0302ebc3034fea2b1293ed007bd306e6
:1004080040f1d580254b9ded0a5b93ed086b85ee99
:10041800066b8ded046b02f00f0203231f4948e0c1
:100428000123bee7002309930c9b5b4403f10108f9
:1004380006934346012bb8bf0123bae70123f2e72d
:1004480000230124cde90834013b00220693984695
:100458000c921223ade701230993023bf5e70c9bad
:1004680006939846a5e7013169605200a6e700bfe8
:1004780061436f63a787d23fb3c8608b288ac63fa2
:10048800fb799f501344d33f0000f07fad34400008
:10049800a4344000b23440006822400030314000ab
:1004a800d50704d591ed006b013327ee067b52107a
:1004b8000831002af4d19ded046b86ee077b8deda3
:1004c800047b109a002a00f0a680b7ee006b9ded21
:1004d800047bb4eec67bf1ee10fa40f19c80b8f1d3
:1004e800000f00f09880069a002a30ddb2ee046b07
:1004f80027ee067b8ded047b0bf1ff3101331446ab
:100508009ded046bb1ee0c5b07ee903ab8eee77b1d
:10051800a7ee065b8ded045b0598dde90423a0f1e9
:100528005073002c7ad1b1ee047b36ee476b43ec66
:10053800172bb4eec76bf1ee10fa00f34282b1ee5e
:10054800477bb4eec76bf1ee10fa00f13882dde9b3
:100558000a34cde90434139b002bc0f21b81bbf194
:100568000e0f00f31781894b03ebcb0393ed006b60
:100578000c9b002b80f2b880b8f1000f00f3b48018
:1005880040f01c82b1ee047b26ee076b9ded047be8
:10059800b4eec76bf1ee10fa4446464680f2f68197
:1005a800029d312305f8013b0bf1010bf2e1022317
:1005b80034e72ed0cbf10002744b02f00f0103ebad
:1005c800c10393ed007b9ded0a6b26ee077b8ded55
:1005d8000e7bdde90e346e49cde90434121100209a
:1005e80002233ab900283ff46cafdde90e12cde9d9
:1005f800041266e7d40709d59ded0e6b91ed007bdb
:1006080026ee077b8ded0e7b013301205210083159
:10061800e7e7022355e75946444671e743ec172bb1
:100628005a4b03ebc40313ed024b029b1c44099b7a
:100638004bb3b6ee003bb7ee002b029d83ee045b96
:10064800b2ee043b35ee477bfdeec64b14ee903a16
:10065800b8eee45b303336ee456bb4eec76bf1eec3
:1006680010fa05f8013b38d432ee465bb4eec75bae
:10067800f1ee10fa6fd4a5423ff469af27ee037b81
:1006880026ee036be0e7029a24ee077b2546b2eede
:10069800043bfdeec64b14ee903a303302f8013bb2
:1006a800a242b8eee45b36ee456b1ad1b6ee005bbb
:1006b80037ee054bb4eec46bf1ee10fa4bdc35eeb9
:1006c800477bb4eec76bf1ee10fa7ff540af15f833
:1006d800013c302b05f1ff3201d08b462ae015464c
:1006e800f5e726ee036bd4e79ded047bb2ee044bf1
:1006f800029d87ee065bbdeec55b15ee103a303302
:1007080005f8013b029beb1a9845b8eec53ba3eef2
:10071800467b33d137ee077bb4eec67bf1ee10fa99
:1007280018dcb4ee467bf1ee10fa03d115ee103a60
:10073800db070fd40199484602f087fc0023119a81
:100748002b700bf1010313601f9b002b3ff460ad6e
:100758001d605de5594615f8012c392a05f1ff336e
:1007680006d1029a9a4207d10298302201310270ca
:100778001a7801321a70b0e71d46ece727ee047bc1
:10078800b5ee407bf1ee10fab3d1d3e76822400012
:1007980030314000099a002a00f0bb80089a012aeb
:1007a80000f3a280002e00f09b8003f233433c4606
:1007b8005546079a01211a4448469a44079202f07e
:1007c80032fe0646002d0bdd079b002b08ddab42f1
:1007d800079aa8bf2b46aaeb030aed1ad31a079368
:1007e800f7b1099b002b00f09880002c11dd3146f1
:1007f8002246484601f096ff019a014606464846b9
:1008080001f036f901990a90484602f01efc0a9b4d
:1008180001933a1b04d00199484601f083ff0190e7
:100828000121484602f0fffd0d9b002b044676ddb2
:100838001a460146484601f075ff089b012b0446fd
:1008480070dd0027236904eb8303186902f03afb83
:10085800c0f12000079b184410f01f007dd0c0f1a4
:100868002003042b77ddc0f11c00079b034482445e
:1008780005440793baf1000f05dd52460199484631
:1008880001f00afe0190079b002b05dd21461a4660
:10089800484601f001fe0446109b002b5fd021461c
:1008a800019802f089fb002859da00230a220199ed
:1008b800484602f050f8099b01900bf1ff3b002bd2
:1008c80000f06e81002331460a22484602f043f8c0
:1008d800069b002b06467ddc089b022b7add46e052
:1008e800129bc3f1360362e708f1ff34a742bfbf8a
:1008f8000d9be71bdb190d93b6bf27463c1b002455
:10090800b8f1000fb9bfaaeb0805002355464346c6
:100918004fe73c465546099e54e73a467be7089b15
:10092800012b14dc049b93b9059bc3f3130282b912
:10093800aa4f1f402fb1079b01330af1010a079301
:1009480001270d9b002b7ff47daf012082e7002754
:10095800f7e7049ff5e78dd018461c3085e7b8f116
:10096800000f31dc089b022b2eddcdf81880069b8a
:1009780063b921460522484601f0edff01460446c9
:10098800019802f019fb00283ff70aae0c9b029d64
:100998006fea030b00272146484602f056fb002e5b
:1009a8003ff4c8ae2fb1b74203d03946484602f0eb
:1009b8004cfb3146484602f048fbbbe6002426467d
:1009c800e4e78b462646ebe5099bcdf81880002b1b
:1009d80000f0ed80002d05dd31462a46484601f03d
:1009e8005bfd0646002f54d07168484602f02ef889
:1009f800326902320546920006f10c010c3002f011
:100a0800c5fc01222946484601f046fd029b029a90
:100a180003f10108069b13440c93049b03f00103a4
:100a280037460993064608f1ff3321460198069395
:100a380001f0b6f83946049000f1300a019802f046
:100a4800bbfa324607902146484601f0a5fbc2682a
:100a5800054602bb0146019802f0aefa0246294655
:100a680048460a9202f0f1fa089b0a9a43ea020100
:100a7800099b0b43454610d1baf1390f29d0079b82
:100a8800002b02dd049b03f1310a069b83f800a0ca
:100a980081e73046bae70122e1e7079b002b04db38
:100aa80008990b4309990b431ed1002aeddd012259
:100ab8000199484601f0f0fc2146019002f07cfac9
:100ac800002803dce1d11af0010fded0baf1390faa
:100ad800d8d1069a3923137015f8013c392b05f142
:100ae800ff3249d0013307e0002a07ddbaf1390f98
:100af800efd0069a0af1010313704ce70c9b08f833
:100b080001ac984520d000230a220199484601f0fb
:100b180022ffb74201904ff000034ff00a02394616
:100b2800484606d101f017ff0746064608f10108b6
:100b380079e701f010ff002307460a2231464846ac
:100b480001f009fff1e7002701220199484601f069
:100b5800a3fc2146019002f02ffa0028bcdc02d148
:100b68001af0010fb8d115f8013c302b05f1ff320e
:100b78007ff411af1546f6e7029b934204d10bf1bf
:100b8800010b3123029ab7e71546a5e7144bfff787
:100b98005bbb1f9b002b7ff436ab124bfff754bb9c
:100ba800069b002b03dc089b022b3ff7e0ae029d5f
:100bb8000198214600f0f4ff00f1300a029b05f885
:100bc80001abea1a069b9342bddd00230a22019974
:100bd800484601f0c0fe0190eae700bf0000f07f40
:080be800b1344000a4344000c8
:020000040000fa
:020000040040ba
:100bf0002de9f04f2ded028b8bb00c461646ddf83b
:100c000058901f46054602f073fc0368039318468c
:100c100002f040fcd9f800300490073323f00703ba
:100c200003f1080294f818b0d4f80080c9f8002045
:100c3000d3e90023c4e912239fedb57b94ed128b19
:100c4000b0eec86bb4ee476bf1ee10fa27ddb5eeef
:100c5000c08bf1ee10fa02d52d2384f84330ae4b51
:100c60001a1dbbf1470f88bf13460293032323616c
:100c70004ff0000a28f004032360d0460097334663
:100c800008aa2146284601f0a7f9013040f0028168
:100c90004ff0ff300bb0bdec028bbde8f08fb4ee2f
:100ca000488bf1ee10fa08d718ee903a002bbcbf33
:100cb0002d2384f84330994bd2e763685a1c0bf01c
:100cc000df0919d10623636048f48063236018eebe
:100cd000903a002bb6bf2d230023b1ee488bb9f11b
:100ce000460fd4f804a005930dd0b9f1450f01d1fa
:100cf0000af1010a022107e0b9f1470fe4d1002b04
:100d0000e2d10123dfe7032108ab019307ab009396
:100d1000524606abb0ee480b2846fff735fab9f15c
:100d2000470f029053d118f0010f50d1029a089b3f
:100d3000b9f1470fa3eb020a069a6cd1d31c03db6f
:100d40006368934280f29580abf1020b5ffa8bfbf4
:100d5000531e002b0693b6bfc2f101032b222d2296
:100d6000092b04f1500884f850b084f851206fdd4d
:100d70000df127024ff00a0e93fbfef10efb11302e
:100d80003030632b02f1ff3c02f8010c58dc3031ab
:100d9000023a0cf8011c04f152030df127008242c3
:100da000194650d3a1eb08080aeb0803baf1010f6a
:100db000236102dc2268d00701d501332361059b42
:100dc000002b3ff45baf2d2384f8433056e7029ba2
:100dd000b9f1460f03eb0a020cd11b78302b07d177
:100de000b5ee408bf1ee10fa1cbfcaf10103069379
:100df000069b1a44b5ee408bf1ee10fa00d1089232
:100e0000089b9a4292d93021581c08901970089b6f
:100e10009a42f9d88ae7bbf1650f99d9bbf1660f01
:100e200029d1002a63681cdd226113b92168c90732
:100e300002d5013313442361a2654ff00008bee7d9
:100e400062460b4698e712f8011b03f8011ba6e760
:100e50003022134484f8522004f1540184f85330b2
:100e6000a0e713b92168c80701d50233e3e70123de
:100e7000e1e74ff0670b524505db23682261d90794
:100e8000dad5531cd7e7002ad4bfc2f102030123ed
:100e90005344d0e723685a0507d42369029a3146a0
:100ea0002846b847013029d1f2e6bbf1650f40f280
:100eb000d48094ed127bb5ee407bf1ee10fa3cd17c
:100ec0000123174a31462846b84701303ff4e0aec7
:100ed000069b534502db2368d8070fd5dde90323c2
:100ee00031462846b84701303ff4d2ae0af1ff3907
:100ef0004ff0000804f11a0ac14513dc23689b0770
:100f000000f1fa80e068089b9842b8bf1846c1e635
:100f1000ffffffffffffef7f1c3440002434400041
:100f20002c3440000123524631462846b847013050
:100f30003ff4aeae08f10108dee7069b002b2bdc88
:100f40000123704a31462846b84701303ff4a0ae2d
:100f5000069b5aea030302d12368d907ced5dde9ff
:100f6000032331462846b84701303ff491ae4ff095
:100f7000000804f11a09069b5b42434501dc534615
:100f80008ce701234a4631462846b84701303ff4f2
:100f90007fae08f10108eee7a36d5345a8bf5346a5
:100fa000002b984606dd029a31462846b8470130a4
:100fb0003ff46eae04f11a034ff0000b28eae87814
:100fc000059309e00123059a31462846b8470130c8
:100fd0003ff45eae0bf1010bd4f85890a9eb080377
:100fe0005b45efdc069b53451adb2368da0717d411
:100ff000069b99451cdbaaeb0908b8f1000f08dd38
:10100000029a43464a4431462846b84701303ff4e5
:101010003fae4ff0000928eae87804f11a0b14e01b
:10102000dde9032331462846b8470130e0d12fe6f9
:10103000aaeb0308e1e701235a4631462846b847a0
:1010400001303ff425ae09f10109069baaeb030329
:10105000a3eb08034b45eedc50e7baf1010f01dcce
:10106000db0736d50123029a31462846b8470130be
:101070003ff40eaedde9032331462846b847013080
:101080003ff406ae94ed127bb5ee407bf1ee10fa24
:101090000af1ff3b18d0029a5b46013231462846de
:1010a000b84701300cd1f3e50123524631462846ba
:1010b000b84701303ff4ecad09f10109cb45f3dc51
:1010c000434604f15002eae64ff0000904f11a0a1f
:1010d000f4e70123029ae1e701234a463146284614
:1010e000b84701303ff4d4ad08f10108e368089a2d
:1010f0009b1a4345f0dc05e74ff0000804f119099d
:08110000f4e700bf2c344000ad
:020000040000fa
:020000040040ba
:10110800300240201c000000000000004c0240207b
:10111800040000000000000050024020040000000d
:1011280000000000540240200400000001000000fc
:1011380070014020700140206000000001000000a4
:1011480000000000f001402010024020d0014020a3
:101158000000000000000000000000000000000087
:101168000000000000000000000000000000000077
:101178000000000000000000000000000000000067
:101188000000000000000000000000000000000057
:101198000000000000000000000000000000000047
:1011a800d00140202000000000000000f001402095
:1011b8002000000000000000100240202000000075
:1011c8000000000058024020040000000000000059
:1011d8005c024020040000000000000004004020e1
:1011e8006c01000001000000430000000000000046
:1011f80000000000000000000000000000000000e7
:101208000000000000000000430000000000000093
:1012180000000000000000000000000000000000c6
:101228000000000000000000430000000000000073
:1012380000000000000000000000000000000000a6
:101248000000000000000000430000000000000053
:101258000000000000000000000000000000000086
:101268000000000000000000430000000000000033
:101278000000000000000000000000000000000066
:101288000000000000000000430000000000000013
:101298000000000000000000000000000000000046
:1012a80000000000000000004300000000000000f3
:1012b8000000000000000000000000000000000026
:1012c8000000000000000000e93340003532400013
:1012d80000000000e41d4000ed344000ec34400004
:1012e800ec344000ec344000ec344000ec34400076
:1012f800ec344000ec344000ec344000ec34400066
:10130800ffffffffffffffffffffffffffff0000e3
:10131800010041534349490000000000000000005b
:1013280000000000000000000000000000000000b5
:10133800000041534349490000000000000000003c
:101348000000000000000000000000000000000095
:101358000000000000004020040000000000000021
:1013680060024020040000000000000000000000af
:1013780000000000222222222222222222222222cd
:020000040000fa
:020000040040ba
:101388002de9f04306460c4601f14300097e85b07d
:101398006e29984617460c9b00f0ba8024d863291a
:1013a80039d00ad8002900f0c380582900f091806c
:1013b80004f1420584f8421035e0642901d0692916
:1013c800f6d125681a6815f0800f02f104012cd0b7
:1013d80012681960002a03da2d23524284f8433038
:1013e800dff8bcc10a233fe0732900f0a58008d8c4
:1013f8006f2921d07029dbd1226842f020022260b7
:1014080003e0752918d07829d2d1782284f84520ac
:10141800dff890c161e01a68111d1960136884f83b
:10142800423004f14205012393e01268196015f077
:10143800400f18bf12b2cde7d4f800c01a681cf0ec
:10144800800f02f104051d6001d0126803e01cf052
:10145800400ffad01288dff848c16f290cbf082363
:101468000a23002184f843106568a560002da2bff7
:10147800216821f0040121600ab9002d46d00546f3
:10148800b2fbf3f103fb112e93421cf80ee005f8b2
:1014980001ed39d9082b0bd12368da0708d5236960
:1014a80062689a42debf302305f8013c05f1ff353a
:1014b800401b2061cdf800803b4603aa21463046f8
:1014c80000f086fd013049d14ff0ff3005b0bde88e
:1014d800f083dff8ccc084f845101d68216855f802
:1014e800042b1d600d060bd5cd0744bf41f020012c
:1014f80021601ab9236823f0200323601023b0e782
:101508004b0648bf92b2efe70a46b9e70546c1e77e
:101518001a68d4f800c06169151d1d601cf0800fa1
:10152800136801d0196003e01cf0400ffad019804d
:10153800002323610546bde71a68111d1960156867
:1015480062680021284600f0ffff08b1401b606078
:1015580063682361002384f84330abe723692a4694
:1015680039463046c0470130aed023689b0713d4b4
:10157800e068039b9842b8bf1846a7e701234a468c
:1015880039463046c04701309ed00135e368039a9a
:101598009b1aab42f2dcebe7002504f11909f5e7e9
:0815a8007c3240008d3240004e
:020000040000fa
:020000040040ba
:1015b0002de9f04f0d469db014461e46074618b162
:1015c00083690bb901f0acfa704b9d425cd17d6828
:1015d000ab891b0762d52b69002b5fd000230993d1
:1015e000dff8ac91039620238df8293030238df855
:1015f0002a304ff0ff3809f1060a23461e4613f839
:10160000012b0ab1252af9d1b6eb040b0bd05b46ae
:1016100022462946384601f05ffb013000f0b080d9
:10162000099b5b4409933378002b00f0a9800023c9
:10163000cde905830136049307938df853301a934f
:101640004ff0010b3446052214f8011b504800f0fe
:101650007fff049b68bbd80644bf20228df853202f
:10166000190744bf2b228df8532032782a2a28d01c
:10167000079a344600200a26214611f8013b303be8
:10168000092b60d918bb29e0424b9d4201d1bd68ae
:101690009ee7414b9d4208bffd6899e729463846c1
:1016a00000f010fd002899d04ff0ff301db0bde8cc
:1016b000f08fa0eb09000bfa00f0184304902646c7
:1016c000c0e7039a111d12680391002a01db0792fb
:1016d00004e0524243f002030792049323782e2b36
:1016e0000bd163782a2b33d1039b1a1d1b680392fd
:1016f000002bb8bf434602340593032221782748c4
:1017000000f026ff40b14023a0eb0a0003fa00f0ee
:10171000049b03430134049314f8011b20488df803
:101720002810062200f014ff03ab00932a461d4b3d
:1017300004a908b33846fff75bfa421c20d0099b86
:101740000344099359e706fb023201200c4693e754
:1017500000230134059319460a26204610f8012b70
:10176000303a092a03d9002bc7d00591c5e706fbfb
:10177000012101230446f0e73846fff705fedce7c8
:10178000ab895b0690d4099890e700bff001402038
:101790004034400010024020d00140204634400038
:0817a0004a344000d92c40003e
:020000040000fa
:020000040040ba
:1017a80008b54f4b98474f4b9847eff3108172b6e7
:1017b8004d4ad2f8883043f47003c2f88830bff33a
:1017c8004f8fbff36f8f01b962b6484b484a5a60d2
:1017d8009a6812f0010ffbd0444bdb6813f4c07f0a
:1017e80013d0444b0c221a60404b434a5a609a6803
:1017f80012f0010ffbd03d4b404a5a609a6812f034
:10180800010ffbd03e4b3f4a1a60bff34f8fbff327
:101818006f8f354cd4f8903223f00103c4f890321e
:10182800d4f8943223f00103c4f89432bff34f8ff5
:10183800bff36f8f01f00af8334b23f07f03a360e7
:10184800324b9847636913f4003f12d1bff34f8faf
:10185800bff36f8f0022c4f85022bff34f8fbff33e
:101868006f8f626942f400326261bff34f8fbff33a
:101878006f8f1d4b5b6913f4803f29d11a4b0022ef
:10188800c3f88420bff34f8fd3f88030c3f3c90661
:10189800c3f34e335a0143f6e075134802ea0504d0
:1018a800334644ea8371c0f86012013bb3f1ff3f4d
:1018b800f7d1203a12f1200ff0d1bff34f8f0a4a27
:1018c800536943f480335361bff34f8fbff36f8f76
:1018d8000f4b98470f4b984701f044fafee700bfbb
:1018e800533440005334400000ed00e0000c0e403b
:1018f8000d00005a4c0240200c08005a0c07005af0
:1019080000180e40010000a500004000b52d400061
:08191800533440005334400039
:020000040000fa
:020000040040ba
:101920002de9f7431e46504b1d6804460f4690466e
:1019300025b1ab6913b9284601f0f2f84b4b9c4234
:1019400052d16c68b8f1020f06d0b8f1010f00f265
:101950008780002ec0f284802146284601f06cf971
:10196000616b41b104f14403994202d0284600f072
:101970008ffe002363630023a3616360a3891b06ba
:1019800003d52169284600f083fea38923f44a6326
:1019900023f00303b8f1020fa3815dd001ab6a46c7
:1019a0002146284601f04efaa3891843a0812ebb98
:1019b000009e304601f05efd0746002847d1ddf865
:1019c0000090b1453cd14ff0ff30a38943f00203b2
:1019d000a3810023a36004f1470323602361012353
:1019e000636103b0bde8f083214b9c4201d1ac6838
:1019f000a8e7204b9c4208bfec68a3e7002fd8d093
:101a0000ab6913b9284601f08bf8b8f1010f08bf94
:101a1000a389276004bf43f00103a381a38913f0c6
:101a20000800c4e9047619d013f0010018bf76420b
:101a30004ff000031dbfa360a6611846a660d0e763
:101a4000484601f017fd07460028bcd04e46a38942
:101a500043f08003a381d3e70020b6e7a060c0e78e
:101a60004ff0ff30bde700bf54024020f00140209e
:081a700010024020d0014020cb
:020000040000fa
:020000040040ba
:101a78002de9f04f15460a692b699a420c46bcbffe
:101a88002c460d46d4f81090d5f81080a3686168ec
:101a980009eb0807bb4285b0b8bf013100f0d6ff9b
:101aa80000f1140606eb870e33460022734519d35e
:101ab80004f1140303eb890305f11402009302eb0c
:101ac800880301934ff6ff75019b029293420cd84d
:101ad800002f03dd5ef8043d002b5fd0076105b0e1
:101ae800bde8f08f43f8042be0e7136813ea050c10
:101af80027d004f1140ab0464ff000095af8041b25
:101b080001ea05030393d8f8003003ea050b039ba9
:101b18000cfb03b34fea114bd8f800104b444feac3
:101b280011490cfb0b9101eb13412b4043ea014394
:101b380048f8043b009b53454fea1149ded8c8f8e2
:101b48000090029bb3f802900432b9f1000f23d041
:101b5800336804f11408b4464ff0000ad8f80010ae
:101b6800bcf802b0294009fb01b18a442b4043ea82
:101b78000a434cf8043b58f8043bdcf800101b0cf3
:101b8800294009fb0313009903eb1a4341454fea27
:101b9800134ae3d8ccf80030043695e7013f97e7bd
:020000040000fa
:020000040040ba
:101ba8002de9f74f03690c69a3428046c0f28d8086
:101bb800013c01f114074fea840c07eb0c0300f118
:101bc8001405009305eb0c03019357f8243055f8de
:101bd800242001339a42b2fbf3f636d34ff0000ac1
:101be800be46a946d3464ff6ff705ef8042b02eabc
:101bf800000306fb03a34fea134a0340abeb0303be
:101c0800120cd9f800b006fb02a213fa8bf34feac4
:101c1800124a02ea000bd9f80020cbeb124202eb81
:101c28002342034043ea024349f8043b009b7345bf
:101c38004fea224bd9d255f80c3033b9019b043bfb
:101c48009d421a4635d3c8f81040404601f0b4f911
:101c580000282adb013628464ff0000e4ff6ff7c9d
:101c680057f8042bd0f8009002ea0c03aeeb0303fc
:101c7800120c13fa89f3c2eb194202eb234203ea6e
:101c88000c034fea224e43ea0242009b40f8042b21
:101c9800bb42e5d255f8242005eb84032ab9043b5e
:101ca8009d421a460bd3c8f81040304603b0bde831
:101cb800f08f1268043b002ac5d1013cc0e71268c6
:0e1cc800043b002aefd1013ceae70020eee7e2
:020000040000fa
:020000040040ba
:021cd600fee727
:020000040000fa
:020000040040ba
:101cd8008a892de9f041054610070c4658d44b680f
:101ce800002b05dc0b6c002b02dc0020bde8f0812a
:101cf800e66a002ef9d0002312f480522f682b6078
:101d080032d0606da3895a0705d56368c01a636b22
:101d18000bb1236cc01a00230246e66a216a2846e2
:101d2800b047431ca38906d129681d292cd82a4a03
:101d3800ca40d60728d500226260d90422692260e9
:101d480004d5421c01d12b6803b96065616b2f6013
:101d58000029cad004f14403994202d0284600f071
:101d680093fc00206063c1e7216a01232846b0473d
:101d7800411cc7d12b68002bc4d01d2b01d0162bba
:101d880001d12f60b1e7a38943f04003a381ade7f8
:101d98000f69002fa9d093070e6808bf4b690f6021
:101da80018bf0023a6eb07088b60b8f1000f9cdd75
:101db80043463a46216aa66a2846b047002806dc08
:101dc800a38943f04003a3814ff0ff308ee7074417
:0c1dd800a8eb0008e9e700bf0100402074
:020000040000fa
:020000040040ba
:101de40000202020202020202020282828282820e7
:101df40020202020202020202020202020202020df
:101e04002088101010101010101010101010101046
:101e14001004040404040404040404101010101036
:101e24001010414141414141010101010101010100
:101e34000101010101010101010101011010101052
:101e440010104242424242420202020202020202d2
:101e54000202020202020202020202021010101026
:101e6400200000000000000000000000000000004e
:101e7400000000000000000000000000000000005e
:101e8400000000000000000000000000000000004e
:101e9400000000000000000000000000000000003e
:101ea400000000000000000000000000000000002e
:101eb400000000000000000000000000000000001e
:101ec400000000000000000000000000000000000e
:101ed40000000000000000000000000000000000fe
:011ee40000fd
:020000040000fa
:020000040040ba
:021ee600fee715
:020000040000fa
:020000040040ba
:101ee80010b4394b0022c3f81421d3f8141141f06f
:101ef8001001c3f8141135494ff400134b606ff407
:101f080000130b604ff0ff334b656ff400600866f9
:101f18004ff400604866c1f89030c1f8a030202026
:101f280008616ff020044c618863c1f8182101f53d
:101f3800007110200867486748606ff0100008605b
:101f48004b650b66c1f89030c1f8a0304ff4807033
:101f580008616ff480744c618863c1f8182101f539
:101f680000710b604b650b66c1f89030c1f8a0306a
:101f78000a614b618a63c1f8182101f500714ff4b9
:101f8800c03008674a6748606ff4c03008604b6526
:101f98000b66c1f89030c1f8a0300a614b618a63c2
:101fa800c1f8182101f500710b604b650b66c1f88b
:101fb8009030c1f8a0300a614b618a63c1f81821da
:101fc8005df8044b704700bf00800840000e0e40cb
:020000040000fa
:020000040040ba
:101fd8002de9f04791461f468a680b69ddf8208095
:101fe8009342b8bf1346c9f8003091f8432006461b
:101ff8000c4612b10133c9f800302368990642bf74
:10200800d9f800300233c9f80030256815f0060504
:1020180007d104f1190ae368d9f800209b1aab42ea
:1020280028dc94f843302268003318bf0123920655
:102038002dd404f1430239463046c047013020d040
:102048002368e568d9f8002003f00603042b08bfcd
:10205800ad1aa36822690cbf25eae57500259342ed
:10206800c4bf9b1aed184ff000091a344d451ad118
:10207800002008e00123524639463046c047013067
:1020880003d14ff0ff30bde8f0870135c3e7e11811
:102098005a1c302081f84300224494f8451082f8f5
:1020a80043100233c5e70123224639463046c0476c
:0a20b8000130e6d009f10109d8e774
:020000040000fa
:020000040040ba
:0220c200fee737
:020000040000fa
:020000040040ba
:1020c400324b70b51d6806460c4625b1ab6913b991
:1020d400284600f023fd2e4b9c420fd16c68b4f9c6
:1020e4000c309ab215072cd4d00611d409223260d0
:1020f40043f04003a3814ff0ff303ee0254b9c4268
:1021040001d1ac68ebe7244b9c4208bfec68e6e7de
:10211400510712d5616b41b104f14403994202d0d5
:10212400304600f0b3fa00236363a38923f0240349
:10213400a3810023636023692360a38943f0080318
:10214400a38123694bb9a38903f42073b3f5007ffa
:1021540003d02146304600f035fba28912f001037a
:102164000cd00023a36063695b42a361236953b964
:10217400b4f90c3013f08000bad170bd920758bf87
:102184006369a360f2e70020f7e700bf5402402030
:0c219400f001402010024020d00140204b
:020000040000fa
:020000040040ba
:1021a0002de9f84f0d46074611462846144600f023
:1021b00007ff061e08d13146384600f04bfc0123cc
:1021c000c0e90436bde8f88fa4bf23462c46384644
:1021d0006168a6bf1d460026012600f03bfc2b6966
:1021e0002769c66004f1140205f1140602eb8708a2
:1021f00006eb830e00f114054ff0000a4ff6ff794d
:1022000052f804bb56f8043b1afa8bfa03ea0901a8
:102210001b0caaeb0101c3eb1b4303eb214301eab7
:1022200009014fea234ab64541ea0343944645f87b
:10223000043be5d84ff6ff74c44504d355f8043d7c
:1022400083b10761bee75cf8041b1afa81f31a1424
:1022500002eb1142234043ea02434fea224a45f887
:08226000043be9e7013fe9e757
:020000040000fa
:020000040040ba
:10226800000000000000f03f0000000000002440d3
:1022780000000000000059400000000000408f40ae
:10228800000000000088c34000000000006af84019
:102298000000000080842e4100000000d01263413d
:1022a8000000000084d797410000000065cdcd41b3
:1022b800000000205fa00242000000e87648374294
:1022c800000000a2941a6d42000040e59c30a24232
:1022d8000000901ec4bcd64200003426f56b0c43a7
:1022e8000080e03779c3414300a0d885573476434e
:1022f80000c84e676dc1ab43003d9160e458e143af
:10230800408cb5781daf154450efe2d6e41a4b4423
:1023180092d54d06cff08044f64ae1c7022db54468
:08232800b49dd9794378ea4421
:020000040000fa
:020000040040ba
:10233000f8b50e461446054618b183690bb900f08e
:10234000effb274b9c4230d16c68a369a360a38943
:10235000190734d52369002b31d0b4f90c30f6b20b
:102360009a04374634d523692068c01a63698342ca
:1023700004dc2146284600f05ffc30bba368013b2b
:10238000a36023685a1c22601e7063690130834277
:1023900004d0a389db0706d50a2e04d1214628469e
:1023a00000f04afc88b93846f8bd0e4b9c4201d17a
:1023b000ac68cae70c4b9c4208bfec68c5e72146f5
:1023c0002846fff77ffe0028c7d04ff0ff37eae727
:1023d00043f40053a381236e23f400532366c2e722
:0c23e000f001402010024020d0014020fd
:020000040000fa
:020000040040ba
:1023ec00f8b5cd1c25f0030508350c2d38bf0c2590
:1023fc00002d064601dba94203d90c2333600020d3
:10240c00f8bd01f089f821490a6814469cb9204f9f
:10241c003b6823b92146304600f05cff3860294602
:10242c00304600f057ff431c23d10c233360304659
:10243c0001f073f8e3e723685b1b17d40b2b03d96c
:10244c0023601c44256004e06368a2420cbf0b604f
:10245c005360304601f061f804f10b00231d20f0ad
:10246c000700c21accd01b1aa350c9e722466468d5
:10247c00cce7c41c24f00304a042e3d0211a30465c
:10248c0000f028ff0130ddd1cfe700bf580240201b
:04249c005c0240207e
:020000040000fa
:020000040040ba
:1024a0002de9f0470c464fea621a236949680aeba6
:1024b0000309a3680746164609f10105ab4233db61
:1024c000384600f0c7fa0023804600f1140100f1fd
:1024d0001002184653452adb20692aeaea7a04f1f9
:1024e000140316f01f0201eb8a0103eb800c22d0cb
:1024f000c2f1200e00201e689640304341f8040bc4
:1025000053f8040b9c4520fa0ef0f4d8086008b18b
:1025100009f10205013d3846c8f81050214600f087
:1025200098fd4046bde8f08701315b00c6e742f800
:10253000040f0133cee7043953f8042b41f8042f7c
:062540009c45f9d8e6e716
:020000040000fa
:020000040040ba
:08254600b1f90e1000f0d9be3e
:020000040000fa
:020000040040ba
:02254e00fee7a6
:020000040000fa
:020000040040ba
:1025500001f0ff01102a2bdb10f0070f08d010f854
:10256000013b013a8b422dd010f0070f42b3f6d158
:10257000f0b441ea012141ea014122f007047ff071
:1025800000070023f0e80256083c85ea010586eac8
:10259000010685fa47f5a3fa87f586fa47f6a5fa04
:1025a00087f68eb9eed1f0bc01f0ff0102f0070210
:1025b00032b110f8013b013a83ea010313b1f8d1bb
:1025c0000020704701387047002d06bf354603389c
:1025d000073815f0010f07d1013015f4807f02bfd5
:1025e000013015f4c03f0130f0bc0138704700bf26
:020000040000fa
:020000040040ba
:1025f0002de9f74359ec108b0e4640f2ff74012190
:10260000154600f027fac9f3130314ea195418bf4a
:1026100043f480130193b8f10003074623d06846c2
:10262000009300f0adfa0099d8b1019ac0f12003ef
:1026300002fa03f30b43c2407b610192019bbb6131
:10264000002b14bf022101213961acb1a4f2334443
:1026500004443460c0f135002860384603b0bde85a
:10266000f0837961eae701a800f08afa019b7b61b7
:10267000012139612030e8e707eb8103a0f2324005
:0e2680003060186900f022fcc0eb4110e4e766
:020000040000fa
:020000040040ba
:02268e00fee765
:020000040000fa
:020000040040ba
:1026900038b50546002945d051f8043c0c1f002be5
:1026a000b8bfe41800f03eff1f4a1368104633b964
:1026b000636014602846bde8384000f034bfa34290
:1026c0000cd921686218934204bf1a685b68636082
:1026d00004bf521822600460ece713465a680ab13e
:1026e000a242fad919685818a0420bd120680144b7
:1026f000581882421960ddd1106852685a6001444e
:102700001960d7e702d90c232b60d3e72068211882
:102710008a4204bf11685268626004bf09182160d0
:0c2720005c60c7e738bd00bf58024020d5
:020000040000fa
:020000040040ba
:10272c002de9f843154612f0030206460f4607d072
:10273c00013a214c002354f8222000f00af90746f4
:10274c00ad1035d0746a3cb9102000f08dfec0e994
:10275c00014470620460c460d6f82480d8f8084044
:10276c004cb940f27121304600f05bfe0023c8f8f2
:10277c000800044603604ff00008eb070ad5394601
:10278c0022463046fff772f939468146304600f052
:10279c005afc4f466d100bd0206838b922462146a2
:1027ac003046fff763f92060c0f800800446e4e788
:0c27bc003846bde8f88300bfcc34400074
:020000040000fa
:020000040040ba
:1027c8008b8973b59d0706460c4607d501f147036b
:1027d8000b600b6101234b6102b070bd01ab6a460f
:1027e80000f02cfb009905463046fff7fbfd78b951
:1027f800b4f90c309a05efd423f0030343f0020335
:10280800a38104f147032360236101236361e3e7a4
:102818000d4bb362a389206043f08003a381009b22
:102828006361019b20615bb1b4f90e10304600f082
:1028380073fd28b1a38923f0030343f00103a381a7
:0c284800a3891d43a581c7e7b5344000fb
:020000040000fa
:020000040040ba
:102854001e4b1f4a9342f0b438bf002103d203f841
:10286400011b9342fbd11b4ad2e9000150ea010348
:102874004ff0000610d09468034602f10c076cb9bf
:1028840021b1014403f8016b9942fbd13a46d2e9e4
:10289400000150ea0103eed1f0bc704759b101f1d7
:1028a4000c030c38801a1a443b461c1813f8015bbd
:1028b40025709342f9d111f0030318bf012303ebf0
:1028c400910107eb81073a46e1e700bf0000402091
:0828d40004004020081140003f
:020000040000fa
:020000040040ba
:1028dc002de9f74380460e46144600f0ebfd012827
:1028ec000ed1731efe2b0bd88df804600546002705
:1028fc000df10409af4213d1304603b0bde8f083ab
:10290c00324604f1580301a9404600f0dffb421c9b
:10291c000546ecd1a38943f04003a3810646ebe7bf
:10292c00a36817f80910013b002ba36004daa26915
:10293c00934207db0a2905d023685a1c22601970c0
:10294c000137d7e722464046fff7ecfc431cf7d192
:02295c00e4e7ae
:020000040000fa
:020000040040ba
:10295e002de9f0410d691f4606460c4601f1140c97
:10296e0000234ff6ff7edcf8000000ea0e0102fbaa
:10297e0001710f0c000c02fb007001ea0e01013315
:10298e0001eb00419d424fea10474cf8041beadc74
:10299e00d7b1a368ab4212dc61683046013100f05a
:1029ae0052f82269023204f10c01804692000c307a
:1029be0000f0e9fc2146304600f044fb444604ebaf
:0e29ce00850301355f6125612046bde8f0817b
:020000040000fa
:020000040040ba
:1029dc00f8b51b4b1e68b369074613b9304600f0b7
:1029ec0099f84836d6e90134013b03d53368dbb19d
:1029fc003668f7e7b4f90c50a5b9124b2566c4e953
:102a0c000055a560c4e90335c4e9055508222946db
:102a1c0004f1580000f030fdc4e90d55c4e912551d
:102a2c002046f8bd6434dfe70421384600f038fb5b
:102a3c00044630600028dbd10c233b60f0e700bf7c
:082a4c00003540000100ffff0e
:020000040000fa
:020000040040ba
:102a540070b5456a04460e463db9102000f008fde5
:102a6400c0e9015560620560c560656aeb6883b1c1
:102a7400636adb6853f82600b8b9012101fa06f548
:102a84006a1d9200204600f09ffc60b1c0e9016518
:102a94000ee021220421204600f096fc636ae860df
:102aa400db68002be4d1002070bd026843f82620c7
:082ab4000023c0e90333f7e73a
:020000040000fa
:020000040040ba
:102abc00164b174a9a629a6e12f0020ffbd0134a09
:102acc00136b23f07003136313469a6e12f0080f06
:102adc00fbd00e4a136b23f4407343f480731363df
:102aec0013469a6e12f0080ffbd0084a136b23f0b2
:102afc00030343f00203136313469a6e12f0080f9c
:102b0c00fbd0024b4ff457321a61704700060e404f
:042b1c00013f18203d
:020000040000fa
:020000040040ba
:102b2000836910b5044633bbc0e912330365124b09
:102b3000124a1b688262984204bf01238361fff737
:102b40004dff60602046fff749ffa0602046fff779
:102b500045ff0022e0600421606800f04ff9012287
:102b60000921a06800f04af902221221e06800f071
:102b700045f90123a36110bd00354000b534400084
:020000040000fa
:020000040040ba
:102b8000036813f0070201460bd0da0724d4990733
:102b90004bbf5b089b08036003604cbf0120022011
:102ba000704798b2b0b91b0c102013f0ff0f04bf90
:102bb0001b0a08301a0704bf1b0904309a0704bf18
:102bc0009b080230da0703d45b0800f1010005d04e
:102bd0000b6070471046e8e70020704720207047e0
:020000040000fa
:020000040040ba
:102be00030b338b50d46044600f04afad5b100219d
:102bf000104a05e0936904f8013b01318d4212d07f
:102c0000536913f0010ffbd0536913f0e00f0ad1a1
:102c1000536813f4003fedd09369c3f3080324f81d
:102c2000023beae729468d4214bf0020012038bd4f
:082c3000002070470080024003
:020000040000fa
:020000040040ba
:102c380038b50b6905460c46dbb118b183690bb989
:102c4800fff76aff0c4b9c4209d16c68b4f90c3051
:102c58007bb121462846bde83840fff739b8074b15
:102c68009c4201d1ac68f1e7054b9c4208bfec6877
:102c7800ece7002038bd00bff001402010024020e2
:042c8800d001402017
:020000040000fa
:020000040040ba
:102c8c00f0b130b40446e9b101200f4a651e023c94
:102c9c0005e02b5cd361431c81420ed91846536965
:102cac0013f0020ffbd0536813f4003ff1d034f84b
:102cbc001030c3f30803d361ede7012030bc70473b
:0c2ccc00002070470120f9e70080024062
:020000040000fa
:020000040040ba
:102cd800f8b50e46096e8904074614460bd4d51874
:102ce800ac420dd0324614f8011b384600f096f974
:102cf8000130f5d10ee023f00303d518ac4201d121
:102d0800002009e0324654f8041b384600f04cfb1a
:0a2d18000130f3d14ff0ff30f8bd99
:020000040000fa
:020000040040ba
:022d2200fee7ca
:020000040000fa
:020000040040ba
:102d240010b50f4c23680021586800f099fb236804
:102d34000021986800f094fb00f08afbfff7bcfeca
:102d4400fff7d0f800f05cfb4ff40043054a5360f2
:102d5400b03a536000f0f2fa00f010fa10bd00bf70
:082d64005402402000190e404a
:020000040000fa
:020000040040ba
:102d6c0030b52ded028b83b00020fff7d5ff0b485b
:102d7c0000f03af928249fed0a8a0a4df5ee008af4
:102d8c00b7eec87a8ded007b53ec172b284600f07c
:102d9c002bf938ee288a013cf2d1fee7c032400014
:082dac0000000000d4324000d9
:020000040000fa
:020000040040ba
:102db40070b50d4d0d4c641ba4100026a64209d11c
:102dc4000b4d0c4cfdf7cef9641ba4100026a64253
:102dd40005d170bd55f8043b98470136eee755f828
:102de400043b98470136f2e7740140007401400047
:082df400740140007801400069
:020000040000fa
:020000040040ba
:102dfc00002310b50446c0e900338360818103666b
:102e0c00c281c0e90433836119460822583000f0ae
:102e1c0033fb054b6362054ba362054be362054b29
:102e2c002462236310bd00bf9f324000892f4000f5
:082e3c00a531400047254000cc
:020000040000fa
:020000040040ba
:102e440070b50e46b1f90e10002990b014461d4617
:102e540007da00232b60b3891a0610d44ff4806379
:102e64000ee001aa00f0c0f90028f2db029a02f495
:102e74007042a2f500535a425a412a60eee74023b9
:082e84000020236010b070bdb6
:020000040000fa
:020000040040ba
:102e8c0010b5054c237833b9044b13b10448aff398
:102e9c0000800123237010bd300240200000000090
:102eac000000000008b5034b1bb103490348aff306
:102ebc00008008bd0000000034024020000000002b
:020000040000fa
:020000040040ba
:102ecc00020c12040346cab90304102013f07f4ffe
:102edc0004bf1b02083013f0704f04bf1b010430f9
:102eec0013f0404f04bf9b000230002b05db13f0a6
:102efc00804f00f1010008bf202070470020e5e75b
:020000040000fa
:020000040040ba
:102f0c0070b5b9b115460ab1022801d9284670bd71
:102f1c000a4b2bb108461146aff30080284670bd12
:102f2c000c468e1814f8010b00f020fab442f9d1bb
:102f3c00284670bd0d46284670bd00bf000000003d
:020000040000fa
:020000040040ba
:102f4c002de9f8438046894600f14804002614b95f
:102f5c003046bde8f883d4e90175013f01d52468fa
:102f6c00f5e7ab89012b07d9b5f90e30013303d046
:0c2f7c0029464046c84706436435eee78e
:020000040000fa
:020000040040ba
:102f88002de9f0411f468b89db0505460c461646a0
:102f980005d502230022b1f90e1000f035f9a389f6
:102fa800b4f90e1023f48053a38132463b462846d9
:082fb800bde8f04100f004b98e
:020000040000fa
:020000040040ba
:102fc00003690a699b1a30b50cd192001430143190
:102fd0008418114454f8045d51f8042d954203d02f
:102fe00005d30123184630bda042f3d3fae74ff0d2
:042ff000ff33f7e7cd
:020000040000fa
:020000040040ba
:102ff4000fb40a4b13b51c6824b1a36913b9204656
:10300400fff78cfd05ab049aa16801932046fef7f7
:10301400cdfa02b0bde8104004b07047540240201d
:020000040000fa
:020000040040ba
:103024009368013b002b10b4936008da9469a342bf
:1030340001db0a2903d15df8044bfff777b9136864
:0e304400581c1060197008465df8044b704768
:020000040000fa
:020000040040ba
:1030520070b5446a06460d463cb9102000f009fae4
:10306200c0e9014470620460c4603db1736a6a6879
:0e307200db6853f82210296043f8225070bd2d
:020000040000fa
:020000040040ba
:10308000094b5b6913f0e00f0dd0074b4ff48072d2
:103090001a605b6913f0010f05d0034b9a695a69f6
:0c30a00012f0010ffad1704700800240ce
:020000040000fa
:020000040040ba
:1030ac0070b54a1e642555430e4605f17001fff7b5
:1030bc0097f9044640b10021c0e900160c30a0601d
:0c30cc0005f1640200f0d8f9204670bd48
:020000040000fa
:020000040040ba
:1030d800f0b5094c85b005461e46d4f8e04009b95c
:1030e8000a4601a9a047431c01bf002333608a2375
:0c30f8002b6005b0f0bd00bf04004020bc
:020000040000fa
:020000040040ba
:10310400074a136843b10749184488428cbf4ff0fb
:10311400ff33106018467047034b1360f3e700bf9a
:0c31240060024020680440206802402047
:020000040000fa
:020000040040ba
:103130000080e03779c34143176e05b5b5b89346b3
:10314000f5f93fe9034f384d321d30f94877825a7f
:083150003cbf737fdd4f1575d4
:020000040000fa
:020000040040ba
:1031580070b569b115464ab140b90c468e180120c0
:1031680000f0f8f804f8010ba642f8d1284670bd23
:083178000d46284670bd00bfa2
:020000040000fa
:020000040040ba
:103180000649ca6822f4e0621204120c044b13438d
:10319000cb60bff35f8f62b6704700bf00ed00e009
:0431a0000000fa052c
:020000040000fa
:020000040040ba
:1031a40010b50c46b1f90e1000f030f8431ca38999
:1031b40015bf606523f4805343f48053a38118bf83
:0431c400a38110bd16
:020000040000fa
:020000040040ba
:1031c80038b5074c054608461146002222601a46c3
:1031d80000f09ef9431c02d1236803b12b6038bd6f
:0431e8000000402083
:020000040000fa
:020000040040ba
:1031ec0038b5074c0023054608461146236000f00d
:1031fc0085f9431c02d1236803b12b6038bd00bf95
:04320c00000040205e
:020000040000fa
:020000040040ba
:1032100038b5074c054608461146002222601a467a
:1032200000f076f9431c02d1236803b12b6038bd4e
:04323000000040203a
:020000040000fa
:020000040040ba
:1032340082b001b901a942b14bb113780b60127885
:10324400101c18bf012002b070471046fbe76ff056
:043254000100f8e796
:020000040000fa
:020000040040ba
:1032580038b5074c054608461146002222601a4632
:1032680000f054f9431c02d1236803b12b6038bd28
:0432780000004020f2
:020000040000fa
:020000040040ba
:10327c0030313233343536373839414243444546a0
:10328c000030313233343536373839616263646536
:02329c006600ca
:020000040000fa
:020000040040ba
:10329e0010b50c46b1f90e10fff7d7ff0028abbfe3
:1032ae00636da3891b1823f48053acbf6365a381a0
:0232be0010bd41
:020000040000fa
:020000040040ba
:1032c0000a2525663a2020202020202525332e316e
:1032d000660000000a25663a2025332e316600007c
:020000040000fa
:020000040040ba
:1032e00038b5064c0023054608462360fff70aff61
:1032f000431c02d1236803b12b6038bd000040207d
:020000040000fa
:020000040040ba
:1033000038b5064c002305460846236000f0faf85d
:10331000431c02d1236803b12b6038bd000040205c
:020000040000fa
:020000040040ba
:1033200038b5064c002305460846236000f0eef849
:10333000431c02d1236803b12b6038bd000040203c
:020000040000fa
:020000040040ba
:10334000054b4ff486721a6050221a604ff40c62db
:0c3350005a6051221a627047008002404f
:020000040000fa
:020000040040ba
:10335c0010b582b0002301930124214601a8fff788
:0c336c0039fc0028f9d0019802b010bd17
:020000040000fa
:020000040040ba
:1033780010b582b08df80700012421460df1070031
:0c338800fff780fc0028f8d002b010bd58
:020000040000fa
:020000040040ba
:103394000a44914200f1ff3300d1704710b511f88f
:0c33a400014b03f8014f9142f9d110bd1c
:020000040000fa
:020000040040ba
:1033b000b2f90c3013f4005f06d143f4005393814b
:0c33c000136e43f400531366fff788ba45
:020000040000fa
:020000040040ba
:1033cc0038b502fb01f42146fff70af8054618b19f
:0c33dc002246002100f050f8284638bdc1
:020000040000fa
:020000040040ba
:1033e80049b1ff2a85bf8a2303600a704ff0ff3076
:0a33f80098bf012070470846704797
:020000040000fa
:020000040040ba
:02340200fee7e3
:020000040000fa
:020000040040ba
:10340400044b20221a6303f500734ff480721a638d
:08341400704700bf000e0e40de
:020000040000fa
:020000040040ba
:10341c00494e4600696e66004e414e006e616e006c
:02342c0030006e
:020000040000fa
:020000040040ba
:10342e0010b50c460121fff70efb0122446102612b
:02343e0010bdbf
:020000040000fa
:020000040040ba
:10344000232d302b2000686c4c006566674546478d
:01345000007b
:020000040000fa
:020000040040ba
:023452007047c1
:020000040000fa
:020000040040ba
:10345400014b024a1a607047000c0e40000600043b
:020000040000fa
:020000040040ba
:1034640000294ff480630cbf02220022fef756baf3
:020000040000fa
:020000040040ba
:10347400024b01461868fef7b7bf00bf5402402054
:020000040000fa
:020000040040ba
:1034840002440346934200d1704703f8011bf9e755
:020000040000fa
:020000040040ba
:10349400034613f8012b002afbd1181a0138704790
:020000040000fa
:020000040040ba
:0f34a400496e66696e697479004e614e003000a2
:020000040000fa
:020000040040ba
:0c34b4000149fff749bd00bf392c400062
:020000040000fa
:020000040040ba
:0c34c000014b93f82801704704004020e5
:020000040000fa
:020000040040ba
:0c34cc0005000000190000007d00000059
:020000040000fa
:020000040040ba
:0c34d8004ff400534b600020704700bf11
:020000040000fa
:020000040040ba
:0b34e4004300504f53495800002e00d9
:020000040000fa
:020000040040ba
:0834f00000487047f400402081
:020000040000fa
:020000040040ba
:0834f8004ff0ff30704700bfe8
:020000040000fa
:020000040040ba
:0435000070014020f6
:020000040000fa
:020000040040ba
:04350400fff7f8bf16
:020000040000fa
:020000040040ba
:04350800fff7e6bf24
:020000040000fa
:020000040040ba
:04350c0000f006b80d
:020000040000fa
:020000040040ba
:0435100000f006b809
:020000040000fa
:020000040040ba
:04351400fff720bedf
:020000040000fa
:020000040040ba
:04351800fff7f8bc05
:020000040000fa
:020000040040ba
:04351c0001207047d3
:020000040000fa
:020000040040ba
:0435200000207047d0
:020000040000fa
:020000040040ba
:023524007047ee
:020000040000fa
:020000040040ba
:023526007047ec
:020000040000fa
:02000004d0002a
:0400000002000000fa
:00000001FF
